S010000052544F5344656D6F2E7372656347
S21440000020660020E18D42006D8A420051A44200E5
S214400010818A4200958A4200A98A42000000000078
S21440002000000000000000000000000001814200C7
S214400030BD8A4200000000001183420079834200DE
S214400040D18A4200E58A4200F98A42000D8B42007E
S214400050218B4200358B4200498B42005D8B42002B
S214400060518D4200C5B34100DDB34100F5B34100B8
S2144000700DB4410025B44100718B4200858B42008F
S214400080BDDD4000998B4200AD8B420065114100BA
S214400090C18B420021DF4100D58B4200E98B4200F4
S2144000A0FD8B4200118C4200258C4200398C420068
S2144000B04D8C4200618C4200758C4200898C420017
S2144000C09D8C4200B18C4200C58C4200D98C4200C7
S2144000D0ED8C4200018D4200158D4200298D420074
S2144000E0518D4200518D4200518D4200518D42004B
S2144000F0F90641003D8D420010B5054C237833B9D2
S214400100044B13B10448AFF300800123237010BDA5
S214400110D809002000000000A0024400084B10B59B
S2144001201BB108490848AFF300800848036803B984
S21440013010BD074B002BFBD0BDE81040184700BF52
S21440014000000000DC090020A0024400A002440099
S2144001500000000080B483B000AF786039607A68F1
S2144001603B689342A8BF134618460C37BD465DF819
S214400170047B704780B582B000AF786039607B689A
S21440018008331A4639687868024B984700BF0837E4
S214400190BD4680BDED6C420090B583B002AF134BB8
S2144001A01B68002B10D14FF4B450114B98470246B1
S2144001B00E4B1A600D4B1B68002B05D14FF4B45103
S2144001C00C480D4B98470EE00C4B1B68002B0AD191
S2144001D00A4B01930323009300234FF4AA72084965
S2144001E00848094CA0470437BD4690BD245400201B
S2144001F0BD544100DC084300791C40001C0A002026
S21440020008094300F50D4000C167410090B58FB026
S21440021002AF786007F11C0207F1200319467868A0
S2144002202C4B9847F862FB6A002B4FD0FB6AB3F121
S214400230FF3F4BD04020284B9847B86240220021D1
S214400240B86A264B9847BB6AFA6A1A60BB6ABA6AAB
S2144002509A63BB6A20331946F86A214B9847BB6AB3
S2144002605B6AD9B2BB6A5B6A1B0ADCB2BB6A5B6A72
S2144002701B0CDBB2BA6A526A120E07F10C000192EE
S214400280009323460A461749174CA047BB6A5B8C27
S2144002901B021AB2BB6A5B8C1B0A9BB21BB213438F
S2144002A01BB29BB21A4607F10C0319460F48104B77
S2144002B09847104B1B6801221946F86A0E4B984720
S2144002C0BB6A2C3319460D480D4B984700BF343750
S2144002D0BD4690BDD1274200BD5441002DB74200D7
S2144002E06533420014094300B51840002009430016
S2144002F0791C4000180A002069114200F8090020C5
S2144003007501400090B589B002AF78602F4B1A68EF
S2144003107B689A4202D12D4B00221A602C4B1A68F9
S2144003207B689A4202D12A4B00221A607B681B687F
S214400330002B3AD07B685B6AD9B27B685B6A1B0A43
S214400340DCB27B685B6A1B0CDBB27A68526A120EC0
S21440035007F108000192009323460A461D491E4CA9
S214400360A0477B685B8C1B021AB27B685B8C1B0ABF
S2144003709BB21BB213431BB29BB21A467B689B6A66
S21440038007F108011548164CA0477B681868154BBE
S2144003901B680F221946144B98477B681B68184603
S2144003A0124B98477B6800221A607B681B68002BBC
S2144003B007D17B682C3318460D4B984778680D4B11
S2144003C0984700BF1C37BD4690BD00BF2C54002048
S2144003D02854002014094300B51840005009430033
S2144003E0791C4000180A0020E111420045194200DD
S2144003F0695441000956410090B5CBB002AF3B1D51
S21440040018603B1D1B681B68002B04D13B1D1868F9
S214400410A54B9847DCE33B1D1B681B7903F00103A3
S214400420DBB2002B40F0A5803B1D1B681B7903F018
S2144004300203DBB2002B00F09C803B1D1B681B6850
S21440044018469A4B9847C7F804014FF4B451D7F86A
S2144004500401974B9847C7F81C013B1D1B681B7946
S21440046003F00403DBB2002B26D03B1D1B6803F1D0
S21440047018023B1D1B681433194610468D4B98478F
S2144004800346002B22D03B1D1B681B7903F0080354
S214400490DBB2002B0CD13B1D1B681B6802211846A3
S2144004A0854B98473B1D1A68137943F00803137130
S2144004B00023C7F81C3109E03B1D1B681B69194621
S2144004C0D7F81C017A4B9847C7F81C01D7F81C315F
S2144004D0002B10DD3B1D1B681868784B1B681946BF
S2144004E0D7F81C210023764CA047C7F80001D7F860
S2144004F00031002B15DB3B1D1B681B7903F0040302
S214400500DBB2002B08D13B1D1B681A69D7F81C319B
S214400510D21A3B1D1B681A61D7F81C31002B02DD2E
S2144005208BE700BF00E000BF3B1D1B681B7903F054
S2144005300403DBB2002B1CD13B1D1B681B7903F068
S2144005401003DBB2002B14D13B1D1B681B69002B2C
S2144005500FD15C485C4B98473B1D1B681B680221CB
S2144005601846554B98473B1D1A68137943F01003BD
S21440057013714FF40043C7F8FC303B1D1B681868E6
S214400580D7F8FC2001235149514CA047C7F8F80042
S214400590D7F8F830002B40F30E834C4B1B68C7F857
S2144005A01831D7F8F830C7F814313B1D1B689A6AE3
S2144005B0D7F8F8301A443B1D1B689A623B1D1B68EF
S2144005C01B7A062B17D83B1D1B685B8C1B021AB286
S2144005D03B1D1B685B8C1B0A9BB21BB213431BB2B2
S2144005E09BB219463B1D1B681B7A1A46D7F8F83053
S2144005F03848354CA0473B1D1B681B7A072B00F23A
S214400600D08201A252F823F0290640008B07400012
S21440061005084000F9094000590A4000D10A400048
S214400620A30B4000A30B40002B4B1B78002B08D09D
S2144006305022D7F818112848284B9847C7F8100179
S21440064003E04FF0FF33C7F81031092387F8EC304A
S2144006503B1D1B68186807F1EC0100230122184C6B
S214400660A047D7F81031002B40D05022D7F81811A9
S21440067019481B4B98471B4A3B1D1B6813603B1D84
S2144006801A68137943F0010313713B1D1B681B7AEC
S2144006900133DAB23B1D1B681A720F4AD7F81011A5
S2144006A01148094B98477CE2050340005534420008
S2144006B05501400039774100C92E4200245400209D
S2144006C0112C420090094300791C4000F409002098
S2144006D08D294200A809430030540020F1C1420051
S2144006E091C242002C540020C8094300AE4AD7F8B5
S2144006F01011AE48AE4B9847AB4B00221A70AD4A2D
S2144007003B1D1B681360AC4B1B68002B38D0A94BB5
S2144007101B68181DA84B1B68043304221946A74BB8
S2144007209847A44B1B68A44A126812691A61A14BE9
S2144007301B68A14A126852695A619E4B1B6818335F
S21440074018469F4B98479B4B1B681B7903F0020348
S214400750DBB2002B08D03B1D1B681868994B1B6802
S21440076002221946984B9847934B1A68137943F0E0
S214400770010313718F4B1A6813796FF300031371DB
S2144007808C4B1B6807221A720BE2D7F81431032BE6
S21440079040F30082D7F818311B781A06D7F818317C
S2144007A001331B781B041A43D7F8183102331B78E1
S2144007B01B021343D7F81821033212781A433B1D05
S2144007C01B68DA603B1D1B68DB68D7F814211946A6
S2144007D07E48774B9847D7F818310433C7F8183116
S2144007E0D7F81431043BC7F814313B1D1B681B7AFD
S2144007F00133DAB23B1D1B681A72D7F81431002B4E
S21440080000F0CA81D7F81431002B40F39480D7F813
S2144008101431D7F81821134400221A70D7F818114B
S2144008206B48634B9847D7F81831C7F80C315CE0F3
S21440083009226849D7F80C01674B98470346002BB6
S2144008400FD1D7F80C310A331B78742B0CBF012319
S2144008500023D9B23B1D1A68137961F34103137123
S2144008603EE005225D49D7F80C015B4B98470346AE
S214400870002B11D1D7F80C31063307F1E80258495E
S2144008801846584B98470346002B29DDD7F8E820F2
S2144008903B1D1B681A6123E006225349D7F80C011A
S2144008A04D4B98470346002B1AD1D7F80C310733E7
S2144008B007F1E4024A4918464A4B98470346002B3C
S2144008C00EDDD7F8E4304FF47A7202FB03F23B1D9C
S2144008D01B685A613B1D1A68137943F00403137171
S2144008E0D7F80C310133C7F80C31D7F80C311B78E8
S2144008F0002B9DD13B1D1B681B7903F00203DBB226
S214400900002B18D03B1D1B681B79C3F34003DBB29A
S21440091019463B1D1B681A693B1D1B681B79C3F3B0
S2144009208003DBB218463B1D1B685B690093034699
S2144009302E481F4CA0473B1D1B68DA68D7F8143179
S2144009409A4209D93B1D1B68DA68D7F81431D21A87
S2144009503B1D1B68DA6024E10A2387F8E030244A0E
S21440096007F1DC0312881A803B1D1B68186807F1E4
S214400970E001002301221F4CA0473B1D1B6818685E
S21440098007F1DC01002302221A4CA0473B1D1B68DE
S2144009900022DA603B1D1B681B7A0133DAB23B1D2E
S2144009A01B681A72FDE000BF30540020EC0943007B
S2144009B0791C4000285400202C54002031B54200B9
S2144009C0F9764100180A002069114200100A4300D7
S2144009D0340A4300480A4300F1C14200540A430027
S2144009E05C0A430009B84200600A4300680A4300B4
S2144009F08C0B4300112C4200D7F818311B7887F82F
S214400A00F7300D2387F8D8303B1D1B685B8C1B02E4
S214400A101AB23B1D1B685B8C1B0A9BB21BB213436E
S214400A201BB29BB2194697F8F730D7F8F8206B48B8
S214400A306B4CA0473B1D1B68186807F1D801002384
S214400A400122684CA0473B1D1B681B7A0133DAB273
S214400A503B1D1B681A72A4E0D7F81431032B40F3F1
S214400A609D80D7F818311B781A06D7F8183101330D
S214400A701B781B041A43D7F8183102331B781B0225
S214400A801343D7F81821033212781A433B1D1B68CC
S214400A90DA603B1D1B68DB68D7F8142119465248BC
S214400AA04F4B9847D7F818310433C7F81831D7F862
S214400AB01431043BC7F814313B1D1B681B7A0133C5
S214400AC0DAB23B1D1B681A72D7F81431002B67D078
S214400AD03B1D1B68DA68D7F814319A4209D93B1D8A
S214400AE01B68DA68D7F81431D21A3B1D1B68DA60E7
S214400AF057E00023C7F808313C4B1B68002B04D056
S214400B003A4B1B689B6AC7F8083107F10C00043063
S214400B10D7F80831364AC421364CA0470346C7F8B2
S214400B20F030D7F8F030013B1A06D7F8F030013BEA
S214400B301B0203F47F031A43D7F8F030013B1B0A2D
S214400B4003F47F431A43D7F8F030013B1B0E1343A0
S214400B50C7F8D43007F1D40107F10C030422184635
S214400B60254B98473B1D1B681868D7F8F0301A1D70
S214400B7007F10C0100231B4CA0473B1D1B680022BD
S214400B80DA603B1D1B681B7A0133DAB23B1D1B68DB
S214400B901A7206E000BF04E000BF02E000BF00E0BB
S214400BA000BF3B1D1B681868D7F8F82000230021BB
S214400BB0124CA0470CE0D7F8F830002B08DAD7F8EC
S214400BC0F83013F10B0F03D03B1D18680C4B9847B9
S214400BD000BF07F59277BD4690BD00BF940A43001C
S214400BE0791C4000112C4200BC0A430028540020C7
S214400BF0E00A43006918400031B542008D294200A2
S214400C000503400080B485B000AFF860B9607A60F4
S214400C103B60064B1A687B681344044A1360012302
S214400C2018461437BD465DF8047B70470C0A002012
S214400C3090B58DB002AF00233B6106220121022011
S214400C40314B984778627B6AB3F1FF3F04D07B6AAA
S214400C50002B01D0012300E00023002B04D140F2FA
S214400C6039312A482A4B984707F1140308220021B5
S214400C701846284B984748F61313FB8207F1100294
S214400C8004230093134600220021786A224CA04792
S214400C903B461022002118461E4B98474FF40753F8
S214400CA03B6004237B604FF40753BB600423FB6028
S214400CB03A461023009313460D220021786A164CBC
S214400CC0A04707F1140308221946786A134B984741
S214400CD038620421786A124B9847F861114B1B68BA
S214400CE001221946786A104B9847FB6900933B6A85
S214400CF041F28932796A0D480D4CA0477B6A184606
S214400D002C37BD4690BD00BF8D0F4200900B430070
S214400D10659A42002DB74200691B42004D164200BC
S214400D20D12D4200180A002069114200C00B430032
S214400D30791C400090B589B002AF00237B60112239
S214400D4002210220224B984778617B69B3F1FF3F2E
S214400D5004D07B69002B01D0012300E00023002B48
S214400D6004D14FF459711B481B4B984748F6131350
S214400D707B813A1D042300931346002200217869A4
S214400D80164CA04707F10803082219467869144B09
S214400D90984738613B6941F2893279691148124C6B
S214400DA0A0473B46042200211846104B9847104B5C
S214400DB03B603A4604230093134609220021786993
S214400DC0064CA0477B6918461C37BD4690BD00BF01
S214400DD08D0F4200900B4300659A4200691B42000B
S214400DE04D164200080C4300791C40002DB74200C7
S214400DF0050C400090B58FB002AF7860474B9847DF
S214400E000246474B1A604748474B9847474B9847D8
S214400E10B862474B984778624648474B9847474B97
S214400E20984703461C06454B9847034603F47F43C2
S214400E301B021C43414B9847034603F47F031B0A9F
S214400E401C433E4B984703461B0E234341F28932D0
S214400E5019463B48384B984741F288333B62304B03
S214400E601B68396A1846374B9847F861FB69002B70
S214400E7015D0354B3B61B86A344B98473B695B6845
S214400E80FB6208E0FB6ADB68FB60FB6A5B68FB6250
S214400E90F8682F4B9847FA6A3B699A42F2D12D4B35
S214400EA01A682D4B1B689A4204D02B4B1B68294A64
S214400EB01360D1E7294B1A68274B1B689A42CBD060
S214400EC0254B1A68254B1B68D31ABB61BB6903F5D3
S214400ED0A3531A33224AA2FB03231B0B7B611F4BEF
S214400EE018687B691F4AA2FB03235C097A691D4B7D
S214400EF0A3FB02135B09642101FB03F3D31A164AD2
S214400F001268019200932346BA69014616480A4C75
S214400F10A047114B1B68114A13609DE7E910420039
S214400F20180A0020F809002051534100310C4000B7
S214400F30350D4000440C4300791C4000810B4200B4
S214400F40580C43004D124200000A00200D0240009B
S214400F50F9034000140A00200C0A0020100A002062
S214400F6009DB01641F85EB51880C430080B584B0D3
S214400F7000AFF860B9607A60FB68BA681A60FB68D0
S214400F80BA685A607B685A1EFB689A60FB68002203
S214400F90DA60FB681033102200211846024B98474F
S214400FA000BF1037BD4680BD2DB7420080B582B029
S214400FB000AF786039607B681B68002B0DD13B68BA
S214400FC0DBB2142211461846174B98477B68DB68FD
S214400FD05A1C7B68DA60012322E07B681A687B68CB
S214400FE09B689A420ED27B681B68591C7A681160CF
S214400FF03A68D2B21A707B68DB685A1C7B68DA6043
S21440100001230DE07B681A687B689B689A4206D18C
S2144010107B681B68591C7A68116000221A7000238E
S21440102018460837BD4680BD4DA3420080B582B005
S21440103000AF786039607B681B68002B12D13B6834
S214401040DBB21422114618461C4B98473B68002BCF
S21440105001D100232EE07B68DB685A1C7B68DA608F
S214401060012327E07B681A687B689B689A4213D204
S2144010707B681B68591C7A6811603A68D2B21A704D
S2144010803B68002B01D1002314E07B68DB685A1CC8
S2144010907B68DA6001230DE07B681A687B689B6892
S2144010A09A4206D17B681B68591C7A6811600022F8
S2144010B01A70002318460837BD4680BD4DA342002F
S2144010C0F0B585B000AF7860396020263B6818469A
S2144010D04E4B98470346002B01D14D4B3B607B68F7
S2144010E05B69002B1BDD00243D6801E001340135BF
S2144010F02B78002BFAD17B685B69A34203DC7B68C4
S21440110000225A6104E07B685B691A1B7B685A615F
S2144011107B681B7F03F00203002B00D030267B68E1
S2144011201B7F03F00103002B12D10DE03146786897
S214401130384B98470346002B01D1002362E07B687A
S2144011405B695A1E7B685A617B685B69002BEDDCE5
S2144011507B689B7F03F00203DBB2002B36D07B68B4
S2144011601B7F012B32D138682B4B98470346BB6018
S2144011707B689A69BB689A4228DD7B689A69BB6837
S214401180D31AFB600BE030217868224B9847034621
S214401190002B01D1002335E0FB68013BFB60FB6878
S2144011A0002BF0D112E03B681B7819467868194B43
S2144011B098470346002B01D1002323E03B680133C8
S2144011C03B607B689B695A1E7B689A617B689B691B
S2144011D0002B12D03B681B78002BE4D10DE0314643
S2144011E078680C4B98470346002B01D1002309E052
S2144011F07B685B695A1E7B685A617B685B69002B1B
S214401200EDDC012318461437BD46F0BD65A3420009
S214401210BC0C4300AD0F4000C1C042002DE9F04376
S21440122087B000AF786039604FF000093D687B6852
S2144012301B691E467A68937F43F0020393773B68A8
S214401240002B0BD130233B7300237B7307F10C0339
S21440125019467868374B9847034665E07B689B7F1E
S21440126003F00103DBB2002B09D00A2E07D13B68FE
S214401270002B04DA4FF001093B685B421D4607F13C
S2144012800C040B34002323700A2E26D0102E13D0C5
S214401290082E22D024E02B4603F00F08B8F1090FA1
S2144012A003DD7B685B7F3A3B9844013C5FFA88F3FA
S2144012B03033DBB223702D09002DECD110E0B5FBA6
S2144012C0F6F306FB03F3EB1A9846013C5FFA88F305
S2144012D03033DBB22370B5FBF6F5002DEFD100BFFF
S2144012E0B9F1000F1BD07B685B69002B14D07B687C
S2144012F01B7F03F00203002B0ED02D2178680E4B87
S21440130098470346002B01D100230DE07B685B69BC
S2144013105A1E7B685A6102E0013C2D232370214609
S2144013207868044B9847034618461C37BD46BDE8C8
S214401330F08300BFC1104000AD0F400090B589B0AB
S21440134002AF786039603B68190E3B681B0CDCB214
S2144013503B681B0ADBB23A68D2B207F1080001923A
S214401360009323460A460949094CA0477A68937F6A
S21440137043F00203937707F1080319467868054B54
S2144013809847012318461C37BD4690BDC40C430001
S214401390B5184000C110400080B483B000AF03468B
S2144013A0FB800B4B1B680B4A934201D1FB8809E03C
S2144013B0FB881B021AB2FB881B0A9BB21BB2134364
S2144013C01BB29BB218460C37BD465DF8047B70478F
S2144013D0B80C43000302010080B588B000AF7860C7
S2144013E039604FF0FF33BB6100237B6100233B61D4
S2144013F00023FB600023FB6123E0FB695B003A6847
S21440140013441B887B817B89002B07D1FB68002B0C
S21440141001D1FB693B61FB680133FB607B89002B94
S21440142002D1FB69072B09D17A69FB689A4203DA35
S214401430FB687B613B69BB610023FB60FB69013352
S214401440FB61FB69072BD8DD7B6810221A617B683D
S21440145061225A770023FB612BE0FA69BB699A4206
S21440146010D17B69013BFA691344FB613A217868E5
S214401470144B9847FB69072B18D13A217868114BD3
S214401480984713E0FB69002B03DD3A2178680D4B43
S2144014909847FB695B003A6813441B8818460A4B1A
S2144014A09847034619467868084B9847FB690133C6
S2144014B0FB61FB69072BD0DD012318462037BD466C
S2144014C080BD00BFAD0F4000991340001D12400084
S2144014D090B587B000AFF860B9607A60BB685A1CB8
S2144014E0BA601B787B617B69252B0FD07969F868D9
S2144014F0954B98470346002B00F08C81BB685A1CDE
S214401500BA601B787B617B69252BEFD1BB685A1C80
S214401510BA601B787B617B69002B00F073817B6926
S214401520252B08D17969F868884B98470346002BE5
S21440153040F05C816FE1FB681033102200211846B2
S214401540834B98477B692D2B14D1BB685A1CBA60D5
S2144015501B787B61FB6801221A770BE0BB685A1C3C
S214401560BA601B787B61FB681B7F43F00203DAB2EC
S214401570FB681A777B69302BF0D07B692A2B20D109
S214401580BB685A1CBA601B787B617B681A1D7A6000
S2144015901A68FB685A611AE0FB685A6913469B0052
S2144015A013445B001A46FB685A61FB685A697B69BC
S2144015B0303B1A44FB685A61BB685A1CBA601B78B9
S2144015C07B617B692F2B02DD7B69392BE4DD7B69F0
S2144015D02E2B2ED1BB685A1CBA601B787B617B6968
S2144015E02A2B20D17B681A1D7A601A68FB689A619C
S2144015F0BB685A1CBA601B787B611AE0FB689A6924
S21440160013469B0013445B001A46FB689A61FB68CE
S2144016109A697B69303B1A44FB689A61BB685A1CDE
S214401620BA601B787B617B692F2B02DD7B69392B87
S214401630E4DDFB689B69002B04D1FB689B695A1E5E
S214401640FB689A617B69702B18D1BB681B78692B45
S21440165014D1BB6801331B78702B0FD1BB680233A3
S214401660BB607B681A1D7A601B681946F868394B60
S21440167098470346002B40F0BB80C6E07B69732B3F
S21440168012D17B681A1D7A601B681C46002C01D05C
S214401690234600E0304B1946F868304B98470346DF
S2144016A0002B40F0A780B0E07B69632B0FD17B68AE
S2144016B01A1D7A601B68DBB23B743B7C1946F8689F
S2144016C0224B98470346002B40F09680A3E07B6968
S2144016D06C2B09D1BB685A1CBA601B787B61FA68D0
S2144016E0937F43F0040393777B694C2B09D1BB6807
S2144016F05A1CBA601B787B61FA68937F43F00803F4
S2144017009377FB680A221A61FB6861225A777B69E5
S214401710642B02D07B69752B24D17B69642B0CBF6C
S21440172001230023D9B2FA68937F61F300039377CD
S2144017307B681A1D7A601B681946F868084B9847FC
S2144017400346002B5AD160E02D104000AD0F4000FC
S2144017502DB74200D9134000D00C4300C1104000C2
S2144017601D124000FB6810221A617B69782B17D146
S214401770BB681B78692B13D1BB6801331B78702B71
S2144017800ED1BB680233BB607B681A1D7A601B684B
S2144017901946F868214B98470346002B30D134E071
S2144017A07B69782B09D07B69582B06D07B69702BD8
S2144017B003D07B696F2B7FF491AE7B69582B03D1A6
S2144017C0FB6841225A7705E07B696F2B02D1FB68A4
S2144017D008221A617B681A1D7A601B681946F868E9
S2144017E00F4B98470346002B0ED00AE000BF75E625
S2144017F000BF73E600BF71E600BF6FE600BF6DE650
S21440180000BF6BE600BF00E000BF0021F868054B54
S214401810984700E000BF1C37BD4690BD3D134000D2
S2144018201D124000AD0F400080B58CB000AFF86090
S214401830B9607A603B60FA68BB681A4407F11003E7
S214401840F9681846064B984707F110033A687968D6
S2144018501846044B9847FB6918463037BD4680BD4E
S2144018606D0F4000D11440000CB480B58CB000AF72
S2144018707860396007F13C03FB627A683B681A443B
S21440188007F10C0379681846084B984707F10C0394
S214401890FA6AB96B1846064B9847BB691846303704
S2144018A0BD46BDE8804002B0704700BF6D0F4000A7
S2144018B0D11440000EB480B58DB000AF786007F10B
S2144018C04003FB627B6803F5806207F10C0379688E
S2144018D01846084B984707F10C03FA6AF96B184606
S2144018E0054B9847BB6918463437BD46BDE880402F
S2144018F003B070476D0F4000D114400080B487B0ED
S21440190000AFF860B9607A60FB681A697B681A4471
S214401910BB68D31A013B7B61FB681A697B699A42B4
S21440192004D8FB681B697A69D31A7B617B691846C1
S2144019301C37BD465DF8047B704700BF80B487B057
S21440194000AFF860B9607A60FB681A697B681A4431
S214401950BB68D31A7B61FB681A697B699A4204D8D4
S214401960FB681B697A69D31A7B617B6918461C370A
S214401970BD465DF8047B704780B584B000AF7860A4
S2144019807B689B68FB607B681B68BB60BA68F968CD
S2144019907868034B9847034618461037BD4680BDC7
S2144019A0FD18400080B584B000AF78607B689B68C7
S2144019B0FB607B681B68BB60FA68B9687868034B55
S2144019C09847034618461037BD4680BD3D1940002F
S2144019D080B582B000AF154B1B68002B20D1144B4E
S2144019E098470346022B1BD140F6B5737B60786858
S2144019F0104B98470246104B1A600F4B1B68002B43
S214401A000ED00D4B1B687A68002118460B4B984742
S214401A10094B1B6840F6A1721A61044B01221A60FA
S214401A20024B1B6818460837BD4680BD000B002099
S214401A30197C4100BD544100F40A00202DB74200F5
S214401A4090B587B002AF786039600023BB60254B05
S214401A501B68002B41D0234B1B681846224B9847E7
S214401A60F860FB68042B38D9204B98471D4B186804
S214401A7007F1080200230093042300211C4CA047D2
S214401A80BB683A689A4217D2164B1868BA68002361
S214401A9000931346174A0021154CA0473A6815494B
S214401AA07868154B98473B68BB603B68013B7A6853
S214401AB0134400221A700EE00A4B1868BA680023D6
S214401AC0009313467A680021094CA047BB687A68A1
S214401AD0134400221A70094B9847BB6818461437BF
S214401AE0BD4690BDF40A0020A5194000D96E4100BD
S214401AF0853C42002C0A002031B54200F56E41007C
S214401B0090B58FB004AF78603960484B1B68002BA7
S214401B1004D140F22F114648464B9847464B9847CB
S214401B20464B9847C7E90801D7E90801444C454A5F
S214401B304FF00003A04703460C46FB61D7E9080177
S214401B403F4C404A4FF00003A0471C461346C7E9A7
S214401B500834D7E908013A4C4FF47A724FF0000344
S214401B60A04703460C46BB61D7E90801344C4FF406
S214401B707A724FF00003A0471C4613467B61002054
S214401B80314B9847034602937B690193BB690093A8
S214401B90FB692E4AC8212E482E4CA0470346FB60C0
S214401BA0FB682B4A9818FB68C3F1C8013B687A6803
S214401BB0294CA04703461A46FB681344FB601B4B60
S214401BC01B681846254B98473861FB681A1D3B69C9
S214401BD09A420ED2154B186807F10C0204230021D6
S214401BE01F4CA047114B1868FB68194A00211C4C33
S214401BF0A0471C4B98471C4B1B68002B0AD1FB6820
S214401C0019461348194B9847194B1B680133184A15
S214401C10136006E0144B1868002302220021154C7E
S214401C20A047FB6818462C37BD4690BDF40A0020F6
S214401C30080D4300659A4200D96E410055DF4100C9
S214401C4065B1420040420F0079704100380D4300B4
S214401C502C0A0020691840002918400079194000D5
S214401C60793B4200F56E4100F80A0020D9924200C6
S214401C70FC0A0020417F41000FB480B582B000AF1F
S214401C800B4B98470346002B08D007F114033B60E4
S214401C9039683869074B9847786001E000237B60D5
S214401CA07B6818460837BD46BDE8804004B070479C
S214401CB0D1194000011B400090B583B002AF094BDC
S214401CC001930223009300234FF40072064907480D
S214401CD0074CA0470246074B1A6000BF0437BD4674
S214401CE090BD00BFF80A0020500D4300311D400053
S214401CF0C16741008054002080B483B000AF0B4BD6
S214401D001B68002B08D0094B1B68B3F1FF3F03D07C
S214401D10064B1B687B6001E000237B607B681846AF
S214401D200C37BD465DF8047B704700BF00000020BE
S214401D3090B593B002AF78604FF47A733B6300205F
S214401D40614B9847B8630CE0BB6B93F8343003F0B4
S214401D501003DBB2002B08D1B96B00205B4B9847D1
S214401D60B863BB6B002BEFD100E000BFBB6B002B12
S214401D7004D14FF47A70564B9847E0E700BF46F2DE
S214401D800933FB82534B98470446534B98470346C8
S214401D90DB432343BB61386B4D4B984711220221EE
S214401DA002204E4B984702464D4B1A604C4B1B68E0
S214401DB0B3F1FF3FEFD0BB6B002B04D14FF4E7717C
S214401DC04848494B9847BB6B9B6B002B04D140F26D
S214401DD0CF114448444B9847BB6B9B6BFB62002338
S214401DE0BB6146F20923FB83BB6B1B683B623C4BE3
S214401DF01B6807F11C01082218463C4B98473B6B72
S214401E003B61374B186807F11002042300931346D2
S214401E1001220021364CA047396B0120354B9847AC
S214401E20FB6A1B69FA6A5268104698470346002BBD
S214401E30F2D00023FB6341E0C8212F482F4B984740
S214401E40B862BB6A002B3DD000201F4B9847786392
S214401E501FE0796B00201D4B984778627B6B5A6970
S214401E607B6B9B69DB431343FB6046F209337B8104
S214401E707B6A002B0BD11A4B18680823019307F195
S214401E80080300930023BA6A1B491D4CA0477B6A8F
S214401E907B637B6B002BDCD11A4B1B68002B05D079
S214401EA0184B1B68013B174A136004E0BB6A19468F
S214401EB01148154B9847FB6B0133FB63FB6B132BA9
S214401EC0BADDA9E700BFA7E769E34000ADE34000FD
S214401ED0B56B4100810B4200BD0B42008D0F4200A6
S214401EE000000020080D4300659A42004D1642004F
S214401EF0691B4200A57E4100040B0020411A4000A9
S214401F00D1144200FC0A0020D992420090B583B01A
S214401F1000AF14237B600D4B1B68002B06D00B4B89
S214401F201868002302220021094CA0477B684FF422
S214401F307A7202FB03F3074AA2FB03239B09184667
S214401F40054B984700BF0C37BD4690BDF80A0020A9
S214401F50417F4100D34D6210B56B410090B482B0D2
S214401F6000AF786039604FF0FF340BE0220A7B68A0
S214401F70591C79601B786340DBB2084951F823301E
S214401F8082EA03043B685A1E3A60002BEED1E343D4
S214401F9018460837BD4690BC704700BF580D4300F2
S214401FA080B485B000AF786039600023FB811CE0C8
S214401FB0FB895AB27B68591C79601B785BB25340E8
S214401FC05BB27B737B7B0F4AD35C9BB21B029AB29D
S214401FD07B7B0D49CB5C19B2FB891B0A9BB21BB2BB
S214401FE04B401BB29BB21344FB813B685A1E3A607F
S214401FF0002BDDD1FB8918461437BD465DF8047BBF
S214402000704700BF581243005811430080B483B055
S21440201000AF786039607B6893F855301A463B6865
S21440202003FB02F318460C37BD465DF8047B704749
S21440203080B483B000AF78600B46FB707B680022AC
S2144020401A607B6800225A607B68FA781A7200BF72
S2144020500C37BD465DF8047B704700BF80B483B044
S21440206000AF786039607A683B6813441B7818463E
S2144020700C37BD465DF8047B704700BF80B485B022
S21440208000AF786039607A683B6813447B607B6851
S2144020905B787B737B681B783B73BB891846143729
S2144020A0BD465DF8047B704780B485B000AF78606D
S2144020B039607A683B6813447B607B68DB78FB73E7
S2144020C07B689B78BB737B685B787B737B681B788D
S2144020D03B73FB6818461437BD465DF8047B704773
S2144020E080B485B000AFF860B9607A60FA68BB68C3
S2144020F013447A68D2B21A7000BF1437BD465DF8F2
S214402100047B704780B487B000AFF860B9607A60EF
S2144021107B689BB2BB82FA68BB681344FB603A7D1F
S214402120FB681A70FB6801337A7D1A7000BF1C3753
S214402130BD465DF8047B704780B487B000AFF8605A
S214402140B9607A607B687B61FA68BB681344FB6061
S2144021503A7DFB681A70FB6801337A7D1A70FB681B
S2144021600233BA7D1A70FB680333FA7D1A7000BFDB
S2144021701C37BD465DF8047B704700BF80B483B013
S21440218000AF78607B681B78002B0CBF01230023D0
S214402190DBB218460C37BD465DF8047B704700BF7F
S2144021A080B483B000AF78607B681B78E52B0CBFAB
S2144021B001230023DBB218460C37BD465DF8047B8E
S2144021C0704700BF80B485B000AF0346FB71FB7913
S2144021D0402B06D9FB795A2B03D8FB792033FB7367
S2144021E001E0FB79FB73FB7B18461437BD465DF870
S2144021F0047B704780B584B000AF786039607B68F8
S2144022005A1C7A601B78FB733B685A1C3A601B78F2
S214402210BB73FB7B18460C4B98470346FB73BB7B54
S2144022201846094B98470346BB73FA7BBB7B9A42DA
S21440223002D1FB7B002BE2D1FA7BBB7BD31A18463C
S2144022401037BD4680BD00BFC521400080B485B074
S21440225000AF78600023BB730B23FB7315E0BB7B9A
S21440226003F00103002B01D0802200E00022BB7B5C
S2144022705B08DBB21344DAB27B68591C79601B7882
S2144022801344BB73FB7B013BFB73FB7B002BE6D10C
S214402290BB7B18461437BD465DF8047B704700BFCD
S2144022A0B0B596B000AFF860B9607A603B60002386
S2144022B03B654FF0FF33FB643B6800221A60FB6CC3
S2144022C0002B7EDA0023FB6407F134031A46B96814
S2144022D0F8683E4B984702463B681A603B681B6866
S2144022E0002B65DB00237B6559E07B6D002B06D019
S2144022F07B6C9B6803F5F0723B6D9A4211D8796D02
S21440230007F134020023F868314CA04702463B6888
S2144023101A603B681B68002B47DB7B6C9B683B6501
S21440232002E03B6D20333B65386D2A4B98470346A9
S214402330002B3CD1386D284B98470346002B2BD1B9
S2144023400B21386D254B9847034687F84B3097F856
S2144023504B3003F00F030F2B1ED03B6D07F11404D8
S2144023601D4628686968AA68EB680FC428696969C9
S214402370AA69EB690FC407F114031846184B98472F
S21440238007F1140319467868164B98470346002B06
S21440239002D10123FB640BE07B6D01337B657B6DD3
S2144023A04FF6FE729342A0DD02E000BF00E000BFA1
S2144023B007F134031946F8680B4B984702463B68CA
S2144023C01A60FB6C18465837BD46B0BDB52E400067
S2144023D0493040007D214000A12140005D20400062
S2144023E0AD2B400049B94200392F400090B599B016
S2144023F000AFF860B9607A60FB700023FB6500238D
S214402400BB650023FB643B6F3A33C1337B630023D9
S214402410A7F84630002387F8453000233B64002366
S214402420FB637868964B984703463B633B6B0C339D
S214402430944A82FB03129210DB17D31ADBB20133A5
S214402440FB62BB689B6803F01803182B02D101237C
S2144024503B6501E000233B653B6F002283F8FB2091
S214402460BB689B6803F02003002B04D0BB684FF08A
S214402470FF325A6002E0BB6800225A60BB681B68A5
S21440248007F110021946F8687F4B984778657B6DD0
S214402490002BC0F284813B6F00229A8268E1FB6D7C
S2144024A0002B06D03B6A9B6803F5F072FB6D9A42A0
S2144024B016D83B6F9B8A194607F110020023F8682E
S2144024C0724CA04778657B6D002B01DA012300E053
S2144024D00023002B40F054813B6A9B68FB6502E07A
S2144024E0FB6D2033FB65F86D694B98470346002B20
S2144024F040F04881F86D674B98470346002B19D04B
S2144025003B6F002283F8FB20BB685B68002B80F2A1
S2144025102681BB6D0133BB65BA6DFB6A9A4240F0BB
S2144025201E813B6F9B8A1A46FB6A013BD21ABB68E8
S2144025305A6014E10023BB653B6F93F8FB3087F885
S2144025402B300B21F86D544B984703461A463B6F89
S21440255083F8FB203B6F93F8FB3003F00F030F2B01
S21440256040F084803B6C002B05D097F82B3003F06E
S2144025700F030F2B15D0FB6D1B7823F040033B64F5
S2144025803B6CFB633B6F9B8AA7F846300D21F86D8A
S214402590414B9847034687F845307B6B013B00220A
S2144025A01A703B6C002B00F0DC803B6C013B3B64BC
S2144025B03B6F03F13A013A6C13465B0013449B00B1
S2144025C013440B44BB640023BB630CE0BB6C5A1C37
S2144025D0BA64BA6B01321146FA6D0A4412781A7020
S2144025E0BB6B0233BB63BB6B092B03DCBA6C7B6BE8
S2144025F09A42EBD30023BB630CE0BB6C5A1CBA6414
S214402600BA6B0E321146FA6D0A4412781A70BB6BDA
S2144026100233BB63BB6B0B2B03DCBA6C7B6B9A42FF
S214402620EBD30023BB630CE0BB6C5A1CBA64BA6B9A
S2144026301C321146FA6D0A4412781A70BB6B02338C
S214402640BB63BB6B032B03DCBA6C7B6B9A42EBD34E
S214402650FB6B5A1E3B6C9A4240F08380BA6C7B6B95
S2144026609A427ED2BB6C00221A707AE03B6F93F897
S214402670FB3003F00803002B10D00023FB6371E00F
S214402680C1C042004FECC44EB52E40004930400019
S2144026907D214000A12140005D204000FB6B002BC7
S2144026A008D0F86D4E4B984703461A4697F8453083
S2144026B093420DD03B6F3A330B22F96D1846494B87
S2144026C098473B6F3A331846474B98470023FB637F
S2144026D03B6F93F8FB20FB781340DBB2FA789A42C4
S2144026E03AD13B6D002B0FD0BB680C330B221946FA
S2144026F0F86D3E4B98470346002B05D1BB689B6858
S21440270043F00602BB689A603B6F3A3319467868D6
S214402710374B98470346002B1ED1FB6B002B0CD043
S21440272007F11003B7F84620396FF868314CA047D8
S21440273078657B6D002B0BDA25E0FA6D396FF8680B
S2144027402D4B98473B6F9B8A01339AB23B6F9A82D8
S2144027503B6F5B68FB6416E00023FB6302E000BF50
S21440276000E000BF3B6F9B8A01339AB23B6F9A8270
S2144027703B6F9B8A4FF6FF7293427FF490AE02E027
S21440278000BF00E000BF07F110031946F8681B4B76
S214402790984778627B6D002B01DB7B6A7B657B6D9F
S2144027A0002B11DBBB685B68002B04DA3B6F9B8A0F
S2144027B01A46BB685A603B6D002B05D0BB689B68C9
S2144027C043F00202BB689A607B6F002B02D07B6F9F
S2144027D07A6D1A60FB6C18466437BD4690BD00BFE4
S2144027E04D22400031B54200AD2B4000CDB44200F2
S2144027F0F5214000F9334000B52D4000392F400008
S21440280090B5ADF50F7D02AF07F10C04206007F1DF
S2144028100800016011463A461360BB1D0A461A80FE
S2144028200023A7F822320023C7F81C3207F1DC0346
S214402830302200211846B44B984707F10C031B681A
S2144028405A6B07F1DC031A6007F1D80300221A60BE
S214402850BB1D1B88012B03D80123C7F82C3274E01C
S214402860BB1D1B88013B07F10802126813441B7806
S2144028705C2B09D0BB1D1B88013B07F10802126880
S21440288013441B782F2B04D1BB1D1A88BB1D013A5D
S2144028901A800023C7F82C3207F10C031B68D3F8C4
S2144028A0A0361846994B98470023C7F8243240E094
S2144028B007F10C02D7F82432C82101FB03F350334A
S2144028C01268134408331846914B98470246BB1D7E
S2144028D01B889A4228D107F10C02D7F82432C82127
S2144028E001FB03F350331268134403F10800BB1D89
S2144028F01A8807F108031968864B98470346002B49
S21440290012D007F10C031A68D7F82432C82101FB0D
S21440291003F3134403F58E731A6807F1DC031A6059
S2144029200123C7F82C3208E0D7F824320133C7F821
S2144029302432D7F82432072BBADD07F10C031B6884
S214402940D3F8A0361846744B9847D7F82C32002B4D
S21440295040F0C880BB1D1B8807F5077407F222228B
S21440296007F1140107F108000093234600686B4CFA
S214402970A047C7F8280207F5867300229A8207F117
S214402980DC0107F10C0007F1D803019307F58673C5
S21440299000931023D7F828220068614CA0470246CF
S2144029A007F1DC031A6007F1DC031B68002B15D027
S2144029B0BB1D1B8807F5077407F2222207F1140196
S2144029C007F10800009323460068544CA047C7F818
S2144029D02802D7F82832002BCDD100E000BFD7F828
S2144029E02832002B0ED007F1D8031B68002B05DADF
S2144029F007F1D8031B689BB2342B03D107F1D803E9
S214402A00484A1A6007F1D8031B68002B6ADB07F1B7
S214402A10DC031B68002B65D007F10C031B68D3F85A
S214402A20A0361846394B9847BB1D1B88C02B51D83B
S214402A3007F10C031B68D3F8983607F10C02C8213F
S214402A4001FB03F350331268134403F10800BB1D27
S214402A501A8807F108031968334B984707F10C03A7
S214402A601B68D3F89826BB1D1B8807F10C01096824
S214402A70C82000FB02F20A441344583300221A705E
S214402A8007F10C031B68D3F8983607F1DC0212688E
S214402A9007F10C010968C82000FB03F30B4403F55B
S214402AA08E731A6007F10C031B68D3F898365A1CCD
S214402AB007F10C031B68C3F8982607F10C031B6844
S214402AC0D3F89836072B05D907F10C031B6800226C
S214402AD0C3F8982607F10C031B68D3F8A0361846AF
S214402AE00D4B98473B461B68002B05D007F1D80393
S214402AF01A683B461B681A6007F1DC031B681846D9
S214402B0007F50D77BD4690BD2DB74200E1AE4000BB
S214402B10C1C04200F1CB400015AF400071CC400030
S214402B20ED23400022000E8231B5420080B485B0CD
S214402B3000AF78600B46FB700823FB732CE07B6885
S214402B401B782E2B02D11023FB7322E0FA78FB7BF6
S214402B501340DBB2002B0ED07B681B78402B18D975
S214402B607B681B785A2B14D87B681B782033DAB2E4
S214402B707B681A700DE07B681B78602B09D97B68F0
S214402B801B787A2B05D87B681B78203BDAB27B68AB
S214402B901A707B6801337B607B681B78002BCED134
S214402BA000BF1437BD465DF8047B704780B588B0DB
S214402BB000AF78607B68FB6107F108030B227968F9
S214402BC01846194B98470023BB6120E007F10802DE
S214402BD0BB6913441B78202B05D1BB69072B1ADC35
S214402BE00723BB6110E0BB69082B04D1FB695A1C64
S214402BF0FA612E221A70FB695A1CFA6107F1080125
S214402C00BA690A4412781A70BB690133BB61BB6962
S214402C100A2BDBDD00E000BFFB6900221A7000BF14
S214402C202037BD4680BD00BF31B5420080B586B076
S214402C3000AFF860B9607A600023FB827B68DB886F
S214402C40DB021AB2B7F9163013431BB2FB827B681D
S214402C501B895B011BB203F4FC631AB2B7F916304A
S214402C6013431BB2FB827B685B895B089BB21BB23B
S214402C7003F01F031AB2B7F9163013431BB2FB8298
S214402C80BB689BB2FA8A1946F868034B984700BF60
S214402C901837BD4680BD00BF0521400080B586B0D0
S214402CA000AFF860B9607A600023FB827B681B88BF
S214402CB0A3F2BC735B021AB2B7F9163013431BB2C9
S214402CC0FB827B685B885B011BB203F4F0731AB22D
S214402CD0B7F9163013431BB2FB827B689B881BB246
S214402CE003F01F031AB2B7F9163013431BB2FB8228
S214402CF0BB689BB2FA8A1946F868034B984700BFF0
S214402D001837BD4680BD00BF0521400080B586B05F
S214402D1000AFF860B9607A607B689BB21946B868C5
S214402D200E4B98470346FB82FB8ADB0A9AB2FB6847
S214402D30DA80FB8A5B119BB203F03F039AB2FB68D2
S214402D401A81FB8A03F01F039BB25B009AB2FB68B2
S214402D505A8100BF1837BD4680BD00BF7D20400069
S214402D6080B586B000AFF860B9607A607B689BB289
S214402D701946B8680E4B98470346FB82FB8A5B0AA7
S214402D809BB203F2BC739AB2FB681A80FB8A5B1153
S214402D909BB203F00F039AB2FB685A80FB8A03F09B
S214402DA01F039AB2FB689A8000BF1837BD4680BDA5
S214402DB07D20400090B585B000AFF860B9607A607D
S214402DC0BB683A330B2279681846314B9847BB6844
S214402DD03A3318462F4B9847BB6803F13A04BB6812
S214402DE03A3318462C4B98470346194620462B4BF9
S214402DF09847142178682A4B984703461C041A21A2
S214402E007868274B9847034644EA0302BB685A60F3
S214402E10BB6816330E2279681846224B9847BB6823
S214402E2016331022796818461F4B9847BB682233E2
S214402E301622796818461B4B9847BB6822331822DF
S214402E4079681846184B9847BB682E331222796823
S214402E501846154B9847BB6800229A86BB680022E6
S214402E60DA86BB6800221A871C2178680F4B984781
S214402E700246BB681A600B2178680D4B984703469C
S214402E801A46BB6883F8FB2000BF1437BD4690BD8A
S214402E9031B54200AD2B4000C1C0420089CB400056
S214402EA07D2040000D2D4000612D4000A9204000AF
S214402EB05D20400090B587B000AFF860B9607A609A
S214402EC01422002178681A4B984707F11403002211
S214402ED0B968F868174CA04702467B681A607B6959
S214402EE0002B1FDB7B68BA685A607B68BA689A60BA
S214402EF0FB6893F854300C2B14D07B685A68FB68F8
S214402F005B6B9A420ED1FB685A6AFB681B6CB2FB3D
S214402F10F3F27B681A607B681B68002B02D17B68E3
S214402F2001221A607B6918461C37BD4690BD00BF1B
S214402F302DB74200C15B400080B584B000AF7860DA
S214402F4039600023FB603B681B69002B09D03B6857
S214402F501B6919467868054B9847F8603B6800221D
S214402F601A61FB6818461037BD4680BDC19A4000BE
S214402F7090B587B000AFF860B9607A602022B96833
S214402F80F8682D4B9847786100233B617B695A1C53
S214402F907B681B689A4202D9284B3B6141E0FB683C
S214402FA093F854300C2B18D07B685A68FB685B6BE0
S214402FB09A4212D1FB685B6AFA68B2F8502002FB6C
S214402FC003F35A09BB689A4202D21D4B3B6128E084
S214402FD07B685A687B689A6023E07B68DA687B691E
S214402FE09A421ED07B68DA687B699A420ED27B682A
S214402FF099687B68DB687A69D21A07F11003F8682B
S214403000104CA04702467B689A600AE07B68596885
S21440301007F110037A69F8680A4CA04702467B68B5
S2144030209A603B69002B02DB7B687A69DA603B6911
S21440303018461C37BD4690BDB14F400034000D8247
S214403040340001821955400090B589B000AFF86051
S214403050B9607A603B607A68B968F868464B9847CA
S214403060B861BB69002BC0F282802022B968F8683C
S214403070424B984778617B689B681946F868404B96
S214403080984704462022B968F8683E4B984703465E
S2144030902344FB61FB6893F854300C2B18D07B68B4
S2144030A05A68FB685B6B9A4212D1FB68B3F85030A3
S2144030B01A46FB681B6C03FB02F35B09BA68B2FB5B
S2144030C0F3F3FA68126C02FB03F3FA691344FB61EC
S2144030D0F969F8682C4B9847044620227969F868C5
S2144030E02A4B984703462344FB617B681B69002BA9
S2144030F00CD07B681B691A68FB699A4206D17B68CC
S2144031001B691B7B03F00203002B1ED07B681B69E8
S214403110002B09D07B681B691946F8681C4B9847FA
S214403120B8617B6800221A61BB69002B0DDB012267
S214403130F969F868174B984702467B681A617B68BE
S2144031401B69002B01D1144BBB613B68002B0ED092
S2144031507B681B69002B0AD07B681B699A687B6971
S2144031605B0113442022194638680C4B9847BB69CC
S21440317018462437BD4690BD712F40000D51400083
S214403180654F4000395040000D20400095504000AB
S214403190C19A4000419840000400018231B5420087
S2144031A090B589B000AFF860B9607A603B607A68E5
S2144031B0B968F868444B9847B861BB69002B7EDB1A
S2144031C02022B968F868414B984778617B689B68CD
S2144031D01946F8683E4B984704462022B968F86876
S2144031E03C4B984703462344FB61FB6893F85430B6
S2144031F00C2B18D07B685A68FB685B6B9A4212D1DE
S214403200FB68B3F850301A46FB681B6C03FB02F3AE
S2144032105B09BA68B2FBF3F3FA68126C02FB03F37D
S214403220FA691344FB61F969F8682B4B98470446E2
S21440323020227969F868294B984703462344FB6166
S2144032407B681B69002B0CD07B681B691A68FB697E
S2144032509A4206D17B681B691B7B03F00203002B56
S2144032601ED17B681B69002B09D07B681B691946F9
S214403270F8681B4B9847B8617B6800221A61BB69A7
S214403280002B0DDB0222F969F868164B9847024678
S2144032907B681A617B681B69002B01D1124BBB61AE
S2144032A07B681B69002B0AD07B681B699A687B6920
S2144032B05B0113442022396818460C4B9847BB697B
S2144032C018462437BD4690BD712F40000D51400032
S2144032D0654F4000395040000D204000955040005A
S2144032E0C19A4000419840000400018231B5420036
S2144032F090B595B000AFF8607A603B600B467B8136
S21440330007F114031A467968F868324B9847F86410
S214403310FB6C002B59DB798907F1280307F114026F
S214403320F8682D4CA047F864FB6C002B41DB07F196
S21440333028031846294B98470346002B39D107F1F6
S21440334028031846264B98470346002B02D0254BA9
S214403350FB642EE007F128030B211846224B9847C2
S21440336003461A463B6883F8FB203B6893F8FB30DD
S21440337003F00F030F2B08D107F114037A8939683D
S214403380F8681A4CA047F86413E03B6893F8FB30A3
S21440339003F00803002B0CD107F128031A463968BE
S2144033A0F868134B98473B689B8A01339AB23B6850
S2144033B09A8207F114031946F8680E4B9847B8648A
S2144033C0FB6C002B01DBBB6CFB64FB6C1846543774
S2144033D0BD4690BDB52E400049304000A12140007A
S2144033E07D214000340003825D204000F9334000D8
S2144033F0B52D4000392F400090B599B000AFF86029
S214403400B9603B601346FB80BB683A33C133FB640C
S214403410FB885A1CFA80194607F124033A68F86874
S2144034208B4CA047F865FB6D002BC0F2088197F8DF
S214403430243023F04003BB6507F124030D211846D2
S214403440844B9847034687F84B30FB6C013B002281
S2144034501A70BB6D7B646CE0BB6803F13A01BA6DD1
S21440346013465B0013449B0013440B443B65002308
S2144034707B650DE03B6D5A1C3A657A6D013207F16B
S21440348060010A4412F83C2C1A707B6D02337B654F
S2144034907B6D092B03DC3A6DFB6C9A42EAD3002322
S2144034A07B650DE03B6D5A1C3A657A6D0E3207F12E
S2144034B060010A4412F83C2C1A707B6D02337B651F
S2144034C07B6D0B2B03DC3A6DFB6C9A42EAD30023F0
S2144034D07B650DE03B6D5A1C3A657A6D1C3207F1F0
S2144034E060010A4412F83C2C1A707B6D02337B65EF
S2144034F07B6D032B03DC3A6DFB6C9A42EAD37B6C04
S2144035005A1EBB6D9A4206D13A6DFB6C9A4202D265
S2144035103B6D00221A70FB885A1CFA80194607F148
S21440352024033A68F8684A4CA047F865FB6D002BC0
S21440353005DBBB6D5A1EBA65002B8DD100E000BF7F
S214403540FB6D002B7DDB07F1240107F114030B22F2
S2144035501846414B984707F1140318463F4B984787
S21440356007F1240318463E4B984703461A4697F8F9
S2144035704B30934207D0BB683A3307F114021146EA
S2144035801846384B984707F1240314211846364B03
S214403590984703461C0407F124031A211846324B69
S2144035A09847034644EA0302BB685A60BB68163332
S2144035B007F124010E2218462C4B9847BB68163359
S2144035C007F1240110221846294B9847BB6822333E
S2144035D007F1240116221846244B9847BB6822332D
S2144035E007F1240118221846214B9847BB682E3312
S2144035F007F12401122218461D4B9847BB6800224B
S2144036009A86BB680022DA86BB6800221A8707F1D2
S21440361024031C211846174B98470246BB681A607D
S21440362007F124030B2118460A4B984703461A46CF
S214403630BB6883F8FB20BB68FA889A8202E000BF2A
S21440364000E000BFFB6D18466437BD4690BD00BF26
S214403650493040005D20400031B54200AD2B40006F
S2144036604D2240001DBC42007D2040000D2D4000F4
S214403670612D4000A920400090B587B000AFF860AB
S214403680B9607A607868244B98470346FB824FF4CB
S21440369088720021B868214B9847FB68002B02D1FE
S2144036A01F4B3B6133E0FB6893F8B53603F02003CD
S2144036B0002B02D01B4B3B6129E007F11003FA8A2E
S2144036C07968F868184CA0470246BB681A613B699F
S2144036D0002B1CDBBB681B69002B02D1134B3B61E4
S2144036E015E0BB681969BB68FC331A46F868104B8E
S2144036F0984703463B613B69002B08DBBB680022CA
S2144037009A82B968F8680B4B984703463B613B6919
S21440371018461C37BD4690BDC1C042002DB742007A
S2144037200200048208000482012840003600048219
S214403730B52E40003937400090B58FB000AF786066
S214403740396000233B637B68002B02D16B4B7B6365
S214403750CFE07B6893F8B53603F02003002B02D009
S214403760674B7B63C5E000237B63A3E03B6B002B8A
S21440377008D03B68D3F80C319B6803F5F0723B6B7E
S2144037809A4223D83B689B8A19463B6803F1FC0261
S214403790002378685B4CA04778637B6B002BC0F2B5
S2144037A091803B6B002B0BD13B68D3F80C319B6868
S2144037B03A68928A02F00F02520113443B6308E0D3
S2144037C03B68D3F80C319B683B6302E03B6B20338D
S2144037D03B63386B4C4B98470346002B63D1386BA2
S2144037E04A4B98470346002B02D0494B7B636CE01C
S2144037F00B21386B474B984703461A463B6883F87D
S214403800FB203B6893F8FB3003F00F030F2B2BD1C4
S2144038103B6B1B7823F04003FB623B689B8A1A464F
S214403820FB6A134419463B6803F1FC0207F10803A0
S2144038307868344CA04778637B6B002B44DB07F1F9
S21440384008031846304B98470346002B2CD13B685C
S2144038509A8A3B68FC33396878682F4CA04778636F
S2144038607B6B002B00BF30E03B6893F8FB3003F0E7
S2144038700803002B18D13A6B39687868274B98476D
S2144038803B6803F13A040C21386B224B98470346B9
S21440389019462046224B98473B689B8A01339AB28A
S2144038A03B689A8211E000BF3B689B8A01339AB21C
S2144038B03B689A823B689B8A4FF6FF7293427FF43E
S2144038C055AF02E000BF00E000BF3B689B8A4FF662
S2144038D0FF72934201D10E4B7B633B68FC33194623
S2144038E07868104B9847B8627B6B002B01DBBB6A4D
S2144038F07B637B6B18463C37BD4690BD0200058215
S2144039000800058249304000A12140007D2140004A
S214403910340005825D204000F9334000B52D40005C
S2144039202D2B4000392F400090B593B000AFF86083
S214403930B9601346FB8000237B640023A7F842301F
S2144039400023FB630023BB63BB681B683B6307F134
S21440395014031A46396BF868544B984778637B6B68
S214403960002BC0F29280BB685B6823EAE373FB637C
S21440397078E07B6C002B06D07B6A9B6803F5F07280
S2144039807B6C9A4226D807F114020023F96BF8683C
S214403990474CA04778637B6B9BB2342B07D1396B7F
S2144039A0F868444B984778630123BB6361E07B6BC0
S2144039B0002B5DDB7B6C002B08D17B6A9A68FB6B27
S2144039C003F00F035B0113447B6406E07B6A9B684D
S2144039D07B6402E07B6C20337B64786C364B984784
S2144039E00346002B19D07B69FB62FA88FB6B1A44AE
S2144039F0FB681B6CF968B1F8501001FB03F3F96AD9
S214403A0001FB03F35B099A4204D9396BF868294BEA
S214403A10984778630123BB632BE0786C274B984725
S214403A200346002B18D0B7F842300133A7F842308F
S214403A30B7F84220FB889A4211D107F11403194681
S214403A40F8681F4B984778630123BB63FB88FA6B83
S214403A50D31A0133FB630CE00023A7F84230FB6B1C
S214403A600133FB63FB6B4FF6FE72934281D900E055
S214403A7000BF07F114031946F868114B9847B8621F
S214403A807B6B002B01DBBB6A7B637B6B002B07DB0E
S214403A90BB6B002B02D0FB6B7B6301E0094B7B6367
S214403AA07B6B18464C37BD4690BD00BFB52E4000D8
S214403AB049304000394440007D214000A12140006B
S214403AC0392F400033000782B0B592B000AFF8609F
S214403AD07A603B600B467B8107F110031A46796893
S214403AE0F868504B984778647B6C002BC0F28F8008
S214403AF0798907F1240307F11002F8684A4CA04779
S214403B0078647B6C002BC0F2828007F11003194664
S214403B10F868464B984778647B6C002B77DBBB6D28
S214403B20002B0DD0BB6D07F124041D46286869683C
S214403B30AA68EB680FC428696969AA69EB690FC46B
S214403B403B6893F8FB301A4607F124030B211846CE
S214403B50374B98473B685B681A0C07F124031421DF
S214403B601846344B98473B685A6807F124031A2195
S214403B701846304B98473B681A6807F124031C21C7
S214403B8018462D4B98473B682E3318462B4B984784
S214403B903B6803F12E0207F1240312211846284BF6
S214403BA098473B6803F12E0207F12403122118467A
S214403BB0244B98473B6803F1160207F124030E2175
S214403BC018461F4B98473B6803F1160207F124033B
S214403BD0102118461B4B98473B6803F1220207F119
S214403BE0240316211846164B98473B6803F12202D9
S214403BF007F1240318211846124B9847798907F194
S214403C00240307F11002F8680F4CA047786407F1C8
S214403C1010031946F868054B98477B6C184648379A
S214403C20BD46B0BDB52E400049304000392F40005B
S214403C30E12040000521400039214000BDD0400031
S214403C402D2C40009D2C4000A131400080B582B014
S214403C5000AF0346FB71FB79402B02D9FB795A2B08
S214403C6013D9FB79602B02D9FB797A2B0DD9FB79D6
S214403C702F2B02D9FB79392B07D9FB7919460648F1
S214403C80064B98470346002B01D0012300E0002353
S214403C9018460837BD4680BD5813430065B84200F5
S214403CA080B586B000AF786039600823FB727B68C9
S214403CB0002283F82C207B68062283F82D207B6820
S214403CC09B6843F019027B689A603868874B984730
S214403CD003463B8100237B6100233B613B89FB60BD
S214403CE00EE07B693A6813441B782E2B03D03B6961
S214403CF001333B6101E07B69FB607B6901337B619B
S214403D003A897B699A42ECDC3B890C2B0CD83A8981
S214403D103B69D31A012B07DC3A89FB68D31A042B7C
S214403D2002DCFB68082B05DD7B689B6823F01002ED
S214403D307B689A6000237B6100233B6199E03B6986
S214403D403A6813441B78BB72BB7A002B00F096800F
S214403D507B69002B09D1BB7A2E2B06D17B689B68EA
S214403D6023F008027B689A6080E03A69FB689A42D2
S214403D7019D17B6893F82D301A467B699A420CDD40
S214403D807B69DAB27B6883F82D2006E07B695A1C93
S214403D907A617A68134420221A737B69072BF5DD13
S214403DA01023FB7262E07B69082B17D13A69FB68E7
S214403DB09A4213DCFB683B613B693A6813441B78C4
S214403DC0BB72BB7A002B5BD03B6901333B613B69DE
S214403DD03A6813441B78BB721023FB72BB7A1846B2
S214403DE0434B98470346002B06D17B689B6823F0DD
S214403DF008027B689A6039E0BB7A602B19D9BB7A97
S214403E007A2B16D8BB7A203BBB72FB7A002B09D0A4
S214403E107B6893F82C20FB7A1343DAB27B6883F8EE
S214403E202C201CE07B689B6823F008027B689A6025
S214403E3015E0BB7A402B12D9BB7A5A2B0FD87B6839
S214403E4093F82C20FB7A1340DBB2002B05D07B681E
S214403E509B6823F008027B689A600023FB727B69AC
S214403E605A1C7A617A681344BA7A1A733B690133EA
S214403E703B617B690A2B7FF762AF02E000BF00E040
S214403E8000BFFB68002B0FD17B69052B0CDC7B69E0
S214403E90DAB27B6883F82D2006E07B695A1C7A618B
S214403EA07A68134420221A737B690A2BF5DD7B68F7
S214403EB093F82D301A46FB689A4207DDFB68002BC4
S214403EC004DDFB68DAB27B6883F82D207B6893F8C4
S214403ED02D309BB23A899A4204D23B89DAB27B684B
S214403EE083F82D2000BF1837BD4680BDC1C04200B4
S214403EF04D3C400090B5D7B002AF3B1D18603B46E6
S214403F00196007F1180300221A6007F59673C7F880
S214403F10403107F1080300221A603B461B6803F154
S214403F200C0107F596730B221846924B984707F5F7
S214403F3096731846904B98473B461B689B6803F021
S214403F401803182B50D13B461B689B6803F00203AE
S214403F50002B17D03B461B689B6803F00403002BDE
S214403F6004D007F11803854A1A60FBE03B461B68FD
S214403F7093F82C3043F00103DBB21A4607F11803DE
S214403F801A60EFE03946381D07F11803019307F130
S214403F901C0300930023D7F8402109680068784C3A
S214403FA0A047C7F83C0107F118031B68002B06DA48
S214403FB007F118031B689BB2342B40F0D380D7F828
S214403FC03C31002B0BD13B461B6893F82C3043F01A
S214403FD00103DBB21A4607F118031A60C2E007F184
S214403FE01803664A1A60BDE03B461B689B6803F0B0
S214403FF01003002B0CBF01230023DBB2C7F84C3163
S214404000D7F84C31002B7ED0D7F84C31042B08DC47
S21440401007F11003D7F84C215A4918465A4B98478F
S2144040202BE007F108031B68002B11D13B1D1B68D2
S2144040309A6B07F108031A6007F108030421184633
S214404040524B984703461A4607F10E031A800AE079
S21440405007F10E03022118464C4B984703461A4672
S21440406007F10E031A8007F10E031B881A4607F164
S214404070100347491846444B984707F11003184623
S214404080444B98470346A7F83A31B7F83A31C3F15C
S2144040900703C7F848313B461B6893F82D301A464D
S2144040A0D7F848319A4205DA3B461B6893F82D30DC
S2144040B0C7F84831D7F848315A1CC7F848213A461D
S2144040C0126813447E221A730023C7F8443114E062
S2144040D0D7F84821D7F84431134407F11001D7F8F0
S2144040E044210A4411783A46126813440A461A7321
S2144040F0D7F844310133C7F84431B7F83A21D7F8F6
S21440410044319A42E4DC3B461B6803F10C0107F558
S21440411096730B221846174B984707F59673184622
S214404120154B98473B461B68196807F1180307F577
S2144041309672381D0068184CA0470346002B10D0D6
S214404140D7F84C314FF6FE72934204DD07F1180360
S214404150124A1A6006E0D7F84C310133C7F84C31A2
S2144041604EE700BF07F118031B68184607F5AA7705
S214404170BD4690BD31B54200AD2B400032000982AD
S214404180ED23400068134300B5184000A11F4000CF
S2144041906C134300C1C04200A12240003300098294
S2144041A080B586B000AFF860B9607A603B60202288
S2144041B00021F8684A4B98473B6803F0BF031A460D
S2144041C00021F868474B98470F220B21F868454B6B
S2144041D0984797F820301A460D21F868414B984783
S2144041E000237B6101233B6121E07A697B689A4228
S2144041F008D2FA683B691A44BB68591CB9601B78F8
S21440420013700EE07A697B689A420AD9FA683B696D
S2144042101344FF221A703B690133FA681344FF22A5
S2144042201A707B6901337B613B6902333B617B6972
S214404230042BDAD90E233B6121E07A697B689A42E7
S21440424008D2FA683B691A44BB68591CB9601B78A7
S21440425013700EE07A697B689A420AD9FA683B691D
S2144042601344FF221A703B690133FA681344FF2255
S2144042701A707B6901337B613B6902333B617B6922
S2144042800A2BDAD91C233B6121E07A697B689A4283
S21440429008D2FA683B691A44BB68591CB9601B7857
S2144042A013700EE07A697B689A420AD9FA683B69CD
S2144042B01344FF221A703B690133FA681344FF2205
S2144042C01A707B6901337B613B6902333B617B69D2
S2144042D00C2BDAD9002318461837BD4680BD00BFE0
S2144042E02DB74200E120400090B59BB002AFF86089
S2144042F0B9607A60FB700023FB657868474B984747
S2144043000346BB64BB6CC12B01DD454BFB65FB6DB7
S214404310002B7EDBBB6C434A82FB03129210DB17FA
S214404320D31ABB65BA6C3F4B83FB02139910D31765
S214404330C91A0B465B000B449B000B44D31A7B65A3
S2144043407B6D002B03D0BB6D0133BB6501E00D23B5
S2144043507B6507F130031A46B968F868324B9847D0
S214404360F865FB6D002B54DBBB6D5A1E13465B0095
S21440437013449B0013441A467B681344FB64BB6D8E
S2144043803B6535E03A6DBB6D9A420FD17A6D396D1B
S21440439007F11000FB7800930B46F96C234CA047BE
S2144043A03B7C43F04003DBB23B7409E03A6D07F1D7
S2144043B01000FB78009313460D22F96C1B4CA04767
S2144043C0FB6C0D3BFB64B7F87020B96D3B6DCB1AA8
S2144043D01344194607F1100307F13002F868144CED
S2144043E0A047F865FB6D002B06DB3B6D013B3B654C
S2144043F03B6D002BC6DC00E000BF07F130031946DA
S214404400F8680C4B984778647B6C002B01DB7B6C20
S214404410FB65FB6D18466437BD4690BDC1C0420083
S2144044203A000A824FECC44EB52E4000A1414000EF
S214404430A1314000392F400090B58BB000AF786076
S214404440396000237B620023BB617B685A6B3B6804
S2144044509A4207D17B6893F854300C2B02D0344BE9
S214404460BB610CE07B68DB6B002B08D107F11803BF
S214404470194678682F4B984702467B68DA63BB69D3
S214404480002B50DB7B68DB6B002B02D12A4BBB61D9
S21440449049E07868294B984707F118031A46396867
S2144044A07868274B98473862BB69002B2FDB07F1AB
S2144044B01803012219467868224B98477862BB69F0
S2144044C0002B24DB07F10C03022118461E4B9847AD
S2144044D007F10C037A6A396A78681C4CA047034691
S2144044E0BB6107F10C0319467868194B9847F86189
S2144044F0BB69002B01DBFB69BB6101217868154B6A
S2144045009847F861BB69002B01DBFB69BB617868A3
S214404510114B9847BB69002B05DB796A78680F4BCF
S21440452098470346BB61BB6918462C37BD4690BDCD
S21440453038000B82BD5D400046000B82D1B0400083
S214404540FD554000DD58400031204000BD5640003B
S21440455089514000B1AD40004DB140003D5440004F
S21440456080B485B000AF78607B681B78E52B1BD1A4
S2144045707B6805221A7017E00023FB600EE07B681C
S2144045801A780E49FB680B441B789A4203D17B6825
S2144045905F221A7005E0FB680133FB60FB68092B5D
S2144045A0EDDD7B6801337B607B681B78002BE3D1B5
S2144045B000BF1437BD465DF8047B70477413430054
S2144045C0B0B59CB002AFF860B9607A6000233B6635
S2144045D00023FB65BB681B687B657B683A331846DF
S2144045E0914B98470346A7F85230B7F852300C33F1
S2144045F08E4A82FB03129210DB17D31A7B667B68C7
S2144046003A3318468A4B984707F124032022002164
S2144046101846884B98477B6E0133BB65F868864BD7
S2144046209847BB689B6803F00103002B05D17B6865
S2144046303A331946B868814B9847B968F868804B52
S2144046409847F864BB680C3307F124041D46286875
S2144046506968AA68EB680FC428696969AA69EB6942
S2144046600FC4FB6C002B02DAFB6CFB65C5E0FB6CF1
S214404670002B03D000237B660123BB65BB6D9BB23A
S2144046801A46B968F8686F4B984738663B6E002BF9
S21440469002DA3B6EFB65B0E07B6E002B15DD07F162
S2144046A024031846684B9847034687F84B307B6888
S2144046B003F13A023B6E9BB297F84B1000930B46C1
S2144046C0796DF868614CA047F865FB6D002BC0F229
S2144046D094807B68163318465D4B98477B687A68AB
S2144046E022331632106851689268186059609A6092
S2144046F07B687A682E331632106851689268186064
S21440470059609A607B6803F1160207F124030E2174
S2144047101846504B98477B6803F1160207F124036E
S214404720102118464C4B98477B6803F1220207F14C
S214404730240316211846474B98477B6803F122020C
S21440474007F1240318211846434B98477B6893F893
S214404750FB301A4607F124030B2118463F4B984777
S214404760FB6C03F0180207F124030C2118463B4B60
S21440477098477B685B681A0C07F124031421184697
S214404780374B98477B685B689AB207F124031A2137
S2144047901846334B98477B681A6807F124031C2158
S2144047A01846304B984707F110031A46796DF8685B
S2144047B02D4B9847F865FB6D002B1DDB3B6E9AB280
S2144047C07B6E9BB213449BB2194607F1240307F154
S2144047D01002F868254CA047F86507F11003194603
S2144047E0F868234B98477864FB6D002B01DB7B6CA5
S2144047F0FB65FB6D002B00E000BFF8681D4B98473B
S214404800FB6D002B0ADB7B68002B07D03B6E9AB211
S2144048107B6E9BB213449AB27B689A82FB6D1846B5
S2144048206837BD46B0BD00BFC1C042004FECC44E65
S214404830614540002DB742008DAF4000A13C40008E
S214404840F53E4000293940004D224000E9424000F4
S214404850BDD040002D2C40009D2C4000E120400063
S2144048600521400039214000B52E4000A1314000CE
S214404870392F4000D9AF400090B5CDB000AF07F11A
S2144048800C04206007F108000160391D0A603A46B2
S214404890136007F1140300221A6007F118034FF45F
S2144048A08872002118463F4B98473B1D07F1180277
S2144048B002F13A00C12219683B4B984707F11402AF
S2144048C007F10C0311461868384B9847024607F123
S2144048D018035A6007F114031B68002B47DB07F1E7
S2144048E0180207F1080107F10C0309681868304BF5
S2144048F09847024607F114031A6007F114031B6831
S214404900002B0CDB3B461B68002B1FD007F1180121
S2144049103B464FF488721868264B984716E007F1D6
S2144049200C031868244B984707F11803596807F199
S2144049300C0300221868214B984707F11803002201
S2144049405A6007F10C0318681D4B984707F10C0393
S21440495018681C4B9847C7F8280107F114031B68D2
S214404960002B04DB07F11403D7F828211A6007F15F
S21440497014031A68D7F840311A6007F114031B680D
S214404980002B05DB07F118035B68C7F82C3102E003
S2144049900023C7F82C31D7F82C31184607F59A77FC
S2144049A0BD4690BD2DB7420091C24200655B4000B7
S2144049B0C145400031B54200D1B04000695C40007E
S2144049C04DB14000B996400090B5E1B002AF3B1DF6
S2144049D018603B46196007F1380300221A6007F159
S2144049E00803302200211846AB4B984707F10803CE
S2144049F09B6843F0200207F108039A603B1D1B6842
S214404A00002B04D107F13803A44A1A60A9E13B1DE4
S214404A101B6893F8B53603F02003002B04D007F14B
S214404A2038039F4A1A609CE13B4618689D4B98475E
S214404A300346C7F8743114E0D7F874313A46126822
S214404A4013441B785C2B10D0D7F874313A46126862
S214404A5013441B782F2B08D0D7F87431013BC7F886
S214404A607431D7F87431002BE6D1D7F8743101335E
S214404A703A4612681344C7F87031D7F87431002BA1
S214404A8002D10123C7F87431D7F874319AB207F1CE
S214404A9038033946381D09680068834CA0470246EB
S214404AA007F108031A6007F138031B68002BC0F2B1
S214404AB0518107F108031B68002B04D107F1380326
S214404AC07A4A1A604DE107F15C034FF48872002180
S214404AD01846714B984707F10803D7F870111846E7
S214404AE0734B984707F10801381D07F138030193C7
S214404AF007F15C0300930023D7F8702100686D4CE3
S214404B00A0470346002B0AD007F138031B68002B4A
S214404B10C0F2228107F13803674A1A601CE107F1A8
S214404B2038031B68002B06DA07F138031B689BB274
S214404B30342B40F0138107F15C033A33C122D7F897
S214404B40701118465D4B984707F15C0300221A60C7
S214404B5007F15C03102283F8FB2007F138023B1D67
S214404B6011461868564B9847024607F15C035A6050
S214404B7007F15C0316331846524B984707F15C031F
S214404B80223318464F4B984707F138031B68002BD3
S214404B90C0F2E68007F15C035B68002B04D107F1A6
S214404BA03803494A1A60DCE007F15C035A683B1D4B
S214404BB011461868454B9847024607F138031A6075
S214404BC007F138031B68002B0BDB07F15C0207F18B
S214404BD008013B1D18683E4B9847024607F13803CC
S214404BE01A6007F138031B68002B14DA3B1D18685F
S214404BF0384B984707F15C0359683B1D00221868FC
S214404C00354B98473B1D1868344B98473B1D1868F2
S214404C10334B9847A5E007F13C032E221A7007F164
S214404C203C0301330A22202118461B4B984707F1C4
S214404C303C030B33152200211846174B984707F1C3
S214404C405C035B68C7F86C3107F15C02381D07F1FE
S214404C503C0300931346D7F86C2100210068214C92
S214404C60A047024607F138031A6007F138031B686D
S214404C70002B55DB07F13C032E225A7007F1080340
S214404C801A683B1D1B685B6B9A422DD107F15C038B
S214404C9000225A602EE000BF2DB7420002000C8270
S214404CA008000C82C1C042000128400036000C8239
S214404CB0A13C4000ED23400032000C8291C24200ED
S214404CC0655B4000BDD0400039000C823D5440003A
S214404CD0C1454000D1B04000695C40004DB1400045
S214404CE0B9964000C93A400007F108031A6807F130
S214404CF05C035A6007F15C02381D07F13C030093E1
S214404D001346D7F86C21012100681A4CA04702468A
S214404D1007F138031A6007F15C03D7F86C215A6034
S214404D2007F138031B68002B0FDA3B1D1868124B3F
S214404D30984707F15C0359683B1D002218680F4BE3
S214404D4098473B1D18680E4B98473B1D18680D4BFF
S214404D50984706E000BF04E000BF02E000BF00E066
S214404D6000BF07F138031B68184607F5BE77BD46F7
S214404D7090BD00BFC93A4000D1B04000695C4000D9
S214404D804DB14000B996400090B58FB000AFF86086
S214404D900B467A607B8100237B637B89002B3DD06A
S214404DA07B89013B7B81798907F114037A68F8682F
S214404DB01D4CA04778637B6B002B2ADB07F114035E
S214404DC00B211846194B984703460F2B11D107F174
S214404DD01403E52200211846154B9847798907F1B8
S214404DE014037A68F868134CA04778637B6B002BF3
S214404DF011DB7B89002B10D07B89013B7B8107F13F
S214404E0014030B211846094B984703460F2BCAD06C
S214404E1004E000BF02E000BF00E000BF7B6B184626
S214404E203C37BD4690BD00BF493040005D20400045
S214404E30E1204000A131400080B483B000AF7860EC
S214404E4039607B6893F855301A463B6803FB02F39B
S214404E5018460C37BD465DF8047B704780B483B077
S214404E6000AF78600B46FB707B6800221A607B6858
S214404E7000225A607B68FA781A7200BF0C37BD462B
S214404E805DF8047B704700BF80B485B000AF7860A3
S214404E9039607A683B6813447B607B685B787B73D9
S214404EA07B681B783B73BB8918461437BD465DF854
S214404EB0047B704780B485B000AF786039607A680C
S214404EC03B6813447B607B68DB78FB737B689B782E
S214404ED0BB737B685B787B737B681B783B73FB6834
S214404EE018461437BD465DF8047B704780B487B0DB
S214404EF000AFF860B9607A607B689BB2BB82FA68A4
S214404F00BB681344FB603A7DFB681A70FB6801334C
S214404F107A7D1A7000BF1C37BD465DF8047B70472B
S214404F2080B487B000AFF860B9607A607B687B6118
S214404F30FA68BB681344FB603A7DFB681A70FB68EE
S214404F4001337A7D1A70FB680233BA7D1A70FB68AB
S214404F500333FA7D1A7000BF1C37BD465DF8047BEC
S214404F60704700BF80B485B000AF786039600023DA
S214404F70FB607B68002B13D07B680C33BB603B68C0
S214404F80012B0AD93B68023BBA68526B02FB03F21C
S214404F90BB68DB691344FB6002E0BB681B6AFB60CE
S214404FA0FB6818461437BD465DF8047B704700BF63
S214404FB080B487B000AFF860B9607A60FB68B3F839
S214404FC050301A46FB681B6C03FB02F37B617A6920
S214404FD07B68B2FBF3F33B61BA683B69B2FBF3F321
S214404FE018461C37BD465DF8047B704780B487B0D2
S214404FF000AFF860B9607A60FB68B3F850301A4684
S214405000FB681B6C03FB02F37B617A697B68B2FB2F
S214405010F3F33B61BB683A69B3FBF2F2396901FBD3
S21440502002F29B1A7A6802FB03F318461C37BD4609
S2144050305DF8047B704700BF80B489B000AFF8606D
S214405040B9607A60FB68B3F850301A46FB681B6C50
S21440505003FB02F3FB61FA697B68B2FBF3F3BB61C7
S214405060BB68BA69B3FBF2F2B96901FB02F29B1A5C
S2144050707B61FB68B3F850301A467B68B2FBF3F3AB
S2144050807A69B2FBF3F318462437BD465DF8047BD5
S214405090704700BF80B489B000AFF860B9607A60EE
S2144050A0FB68B3F850301A46FB681B6C03FB02F3F0
S2144050B0FB61FA697B68B2FBF3F3BB61BB68BA6914
S2144050C0B3FBF2F2B96901FB02F29B1A7B61FB6803
S2144050D0B3F850301A467B68B2FBF3F27B69B3FBF9
S2144050E0F2F102FB01F29B1A3B61FB68B3F8B03663
S2144050F01A467B68B2FBF3F33A69B2FBF3F3184601
S2144051002437BD465DF8047B704700BF80B489B045
S21440511000AFF860B9607A60FB68B3F850301A4662
S214405120FB681B6C03FB02F3FB61FA697B68B2FB0E
S214405130F3F3BB61BB68BA69B3FBF2F2B96901FB32
S21440514002F29B1A7B61FB68B3F850301A467B68C4
S214405150B2FBF3F27B69B3FBF2F102FB01F29B1A5E
S2144051603B61FB68B3F8B0361A467B68B2FBF3F295
S2144051703B69B3FBF2F102FB01F29B1A1846243757
S214405180BD465DF8047B704780B586B000AF78605A
S214405190396000233B6100237B611BE03B687A69F2
S2144051A053F82230FB60FB68002B10D00023BB6016
S2144051B03B687A69002143F82210F9687868094B01
S2144051C09847B8603B69002B01DBBB683B617B6955
S2144051D001337B617B69012BE0DD3B69184618375C
S2144051E0BD4680BDC19A400080B586B000AFF8602D
S2144051F0B9607A603B6000237B6100233B61BB68FB
S214405200002B26D0BB687A6853F822303B613B6956
S214405210002B1ED0BB687A68002143F822103B69F9
S2144052201A683B689A420BD197F8243003F0020381
S214405230002B0DD03B691B7B03F00203002B07D1EC
S2144052403969F868104B9847786100233B6100E065
S21440525000BF3B69002B0FD17B69002B0CDB97F816
S21440526024301A463968F868084B984738613B69D5
S214405270002B01D1064B7B613B6A7A691A603B6919
S21440528018461837BD4680BDC19A40004198400038
S2144052900400008090B591B002AFF860B9607A60C3
S2144052A03B6000237B6200233B630023FB620023BA
S2144052B0BB6200237B613B68002B02D03B681B7AB5
S2144052C000E0012387F823300121F868544B9847C3
S2144052D0FB681A6BBB689A4202D8524B7B6148E027
S2144052E0FB6893F854300C2B03D1BB689B007B6360
S2144052F00DE0FB6893F854300B2B03D1BB685B0082
S2144053007B6304E0BB685A08BB6813447B63FB6856
S2144053101A69FB68B3F8503019467B6BB3FBF1F360
S21440532013443B63FB68B3F850301A467B6BB3FBC1
S214405330F2F102FB01F29B1AFB61FB68B3F8B03650
S2144053401A46FB69B3FBF2F3BB61FB68B3F8B036B1
S2144053501A46FB69B3FBF2F102FB01F29B1ABB62F1
S214405360396BF868304B984738633A6BBB691344DF
S2144053703B637B69002B43DB97F82330019307F1AF
S214405380140300933B6B00223968F868274CA0470B
S21440539078627B69002B07DA7B699BB243F0044353
S2144053A043F480337B612BE0FB6893F854300B2B3F
S2144053B00DD00C2B14D17B6A9B68B96A18461C4BDF
S2144053C09847F862FB6A23F07043FB620BE07B6A07
S2144053D09B68B96A1846174B98470346FB6202E03B
S2144053E00023FB6200BF3B68002B03D03B687A6A11
S2144053F01A6005E0796AF8680F4B984703467B6168
S2144054007B69002B01DA0023FB627B68002B02D00D
S2144054107A697B681A60FB6A18463C37BD4690BD81
S21440542079B0400016000184394E4000E9514000F2
S214405430B54E4000894E4000C19A400090B58BB0B2
S21440544002AF786039600023FB610023BB61396896
S21440545078682A4B9847386139697868284B984766
S214405460386100237B612AE07B69002B14D14222FD
S21440547039697868234B9847B861BB69002B02D1DD
S214405480214BFB6123E0BB6998687B68B3F8B03674
S2144054901A4600211D4B98477A693B69D118BB696B
S2144054A09A6800230093134601227868184CA04758
S2144054B0F861FB69002B09DB7B6901337B617B6804
S2144054C01B6C1A467B699A42CEDC00E000BFBB6983
S2144054D0002B0ED0BA69537B6FF300035373B96940
S2144054E078680C4B9847F860FB69002B01DBFB683B
S2144054F0FB61FB6918462437BD4690BD654F4000AA
S214405500394E400041984000040002842DB74200C6
S214405510199C4000C19A400090B58FB000AFF8602B
S214405520B9607A603B6000233B62BB683B63BB6804
S214405530FB620121F8682A4B98470346002B0CBFB4
S21440554001230023DBB2BB6207F114030121184696
S214405550244B9847BB6A002B02D0F868224B9847EA
S21440556000237B631DE007F1140307F12002F96A6C
S214405570F8681E4CA04738633B6A002B02DA0023CB
S2144055803B6312E0396BF868194B98470346002B8B
S21440559002D0FB6A3B6308E03B6BFB627B6B0133EC
S2144055A07B637A6B7B689A42DDD3BB6A002B02D062
S2144055B0F868104B984707F114031946F8680E4BE5
S2144055C0984778623B6A002B01DB7B6A3B623A6A0B
S2144055D03B681A603B6B18463C37BD4690BD00BFE3
S2144055E029B040005D4E4000D1B04000955240008A
S2144055F04D5640004DB140008951400090B587B0AF
S21440560000AFF860B9607A60BB687B61B968F868DB
S2144056100C4B98470346002B09D107F110034FF077
S214405620FF32B968F868084CA047786101E000236B
S2144056303B613A697B681A607B6918461C37BD46F1
S21440564090BD00BF4D5640001955400080B485B00F
S21440565000AF786039600023FB607B6893F8543075
S2144056600C2B08D13B6823F07043134A934216D95B
S2144056700123FB6013E07B6893F854300B2B07D173
S2144056803B684FF6F772934209D90123FB6006E068
S2144056903B6840F6F772934201D90123FB603B68B2
S2144056A0002B01D10123FB60FB6818461437BD462A
S2144056B05DF8047B704700BFF7FFFF0F90B591B0D1
S2144056C002AFF860B9607A603B6000233B6300231A
S2144056D0BB6200233B61FB6893F856303B62012176
S2144056E0F868764B9847BB68002B04D0FB681A6B6B
S2144056F0BB689A4202D8724B3B6148E0FB6893F81D
S21440570054300C2B03D1BB689B007B630DE0FB68D9
S21440571093F854300B2B03D1BB685B007B6304E0EB
S214405720BB685A08BB6813447B63FB681A69FB680E
S214405730B3F8503019467B6BB3FBF1F313443B632D
S214405740FB68B3F850301A467B6BB3FBF2F102FBB2
S21440575001F29B1AFB61FB68B3F8B0361A46FB6948
S214405760B3FBF2F3BB61FB68B3F8B0361A46FB698D
S214405770B3FBF2F102FB01F29B1ABB62396BF8688D
S214405780504B984738633A6BBB6913443B633B695D
S214405790002BC0F28E8000237B6283E002230193BD
S2144057A007F1100300933B6B7A6A3968F868464CF9
S2144057B0A04778613B69002B07DA3B699BB243F010
S2144057C0044343F440333B6173E0FB6893F8543042
S2144057D00C2B0BD17B6823F070437B607B699B6806
S2144057E07A68B96A1846394B98473BE0FB6893F8A5
S2144057F054300B2B08D17B699B687A6892B2B96AA1
S2144058001846334B98472DE07B699B68B96A184623
S214405810304B98470346FB62BB6803F00103002BFE
S2144058200CD0FB6A03F00F03FB627B681B017B60B6
S2144058307A684FF6F07313407B6007E0FB6A03F428
S2144058407043FB627B68C3F30B037B607B6998689D
S214405850FB6A9AB27B689BB213439BB21A46B96AFC
S2144058601B4B98477B6A012B0BDC3B68002B08D010
S2144058703B687A6A796943F822103B6802221A72BA
S21440588008E07969F868144B984703463B613B69E2
S214405890002B0DDB7B6A01337B62FB685B693A6BEE
S2144058A013443B637A6A3B6A9A42FFF677AF00E05E
S2144058B000BF3B6918463C37BD4690BD79B04000B6
S2144058C016000384394E4000E9514000214F400005
